{
    "contractName": "ReversibleICO",
    "abi": [
        {
            "constant": false,
            "inputs": [
                {
                    "name": "",
                    "type": "address"
                },
                {
                    "name": "_from",
                    "type": "address"
                },
                {
                    "name": "",
                    "type": "address"
                },
                {
                    "name": "_amount",
                    "type": "uint256"
                },
                {
                    "name": "",
                    "type": "bytes"
                },
                {
                    "name": "",
                    "type": "bytes"
                }
            ],
            "name": "tokensReceived",
            "outputs": [],
            "payable": false,
            "stateMutability": "nonpayable",
            "type": "function"
        },
        {
            "constant": true,
            "inputs": [],
            "name": "frozen",
            "outputs": [
                {
                    "name": "",
                    "type": "bool"
                }
            ],
            "payable": false,
            "stateMutability": "view",
            "type": "function"
        },
        {
            "constant": true,
            "inputs": [
                {
                    "name": "_participantAddress",
                    "type": "address"
                }
            ],
            "name": "canCancelByEth",
            "outputs": [
                {
                    "name": "",
                    "type": "bool"
                }
            ],
            "payable": false,
            "stateMutability": "view",
            "type": "function"
        },
        {
            "constant": true,
            "inputs": [],
            "name": "returnedETH",
            "outputs": [
                {
                    "name": "",
                    "type": "uint256"
                }
            ],
            "payable": false,
            "stateMutability": "view",
            "type": "function"
        },
        {
            "constant": true,
            "inputs": [
                {
                    "name": "",
                    "type": "uint256"
                }
            ],
            "name": "participantsById",
            "outputs": [
                {
                    "name": "",
                    "type": "address"
                }
            ],
            "payable": false,
            "stateMutability": "view",
            "type": "function"
        },
        {
            "constant": true,
            "inputs": [],
            "name": "ended",
            "outputs": [
                {
                    "name": "",
                    "type": "bool"
                }
            ],
            "payable": false,
            "stateMutability": "view",
            "type": "function"
        },
        {
            "constant": true,
            "inputs": [],
            "name": "initialized",
            "outputs": [
                {
                    "name": "",
                    "type": "bool"
                }
            ],
            "payable": false,
            "stateMutability": "view",
            "type": "function"
        },
        {
            "constant": true,
            "inputs": [
                {
                    "name": "",
                    "type": "uint8"
                }
            ],
            "name": "stages",
            "outputs": [
                {
                    "name": "startBlock",
                    "type": "uint256"
                },
                {
                    "name": "endBlock",
                    "type": "uint256"
                },
                {
                    "name": "tokenPrice",
                    "type": "uint256"
                }
            ],
            "payable": false,
            "stateMutability": "view",
            "type": "function"
        },
        {
            "constant": true,
            "inputs": [],
            "name": "started",
            "outputs": [
                {
                    "name": "",
                    "type": "bool"
                }
            ],
            "payable": false,
            "stateMutability": "view",
            "type": "function"
        },
        {
            "constant": false,
            "inputs": [
                {
                    "name": "_tokenContractAddress",
                    "type": "address"
                },
                {
                    "name": "_whitelistControllerAddress",
                    "type": "address"
                },
                {
                    "name": "_projectWalletAddress",
                    "type": "address"
                },
                {
                    "name": "_commitPhaseStartBlock",
                    "type": "uint256"
                },
                {
                    "name": "_commitPhaseBlockCount",
                    "type": "uint256"
                },
                {
                    "name": "_commitPhasePrice",
                    "type": "uint256"
                },
                {
                    "name": "_stageCount",
                    "type": "uint8"
                },
                {
                    "name": "_stageBlockCount",
                    "type": "uint256"
                },
                {
                    "name": "_stagePriceIncrease",
                    "type": "uint256"
                }
            ],
            "name": "init",
            "outputs": [],
            "payable": false,
            "stateMutability": "nonpayable",
            "type": "function"
        },
        {
            "constant": true,
            "inputs": [],
            "name": "participantCount",
            "outputs": [
                {
                    "name": "",
                    "type": "uint256"
                }
            ],
            "payable": false,
            "stateMutability": "view",
            "type": "function"
        },
        {
            "constant": true,
            "inputs": [],
            "name": "commitPhaseStartBlock",
            "outputs": [
                {
                    "name": "",
                    "type": "uint256"
                }
            ],
            "payable": false,
            "stateMutability": "view",
            "type": "function"
        },
        {
            "constant": true,
            "inputs": [],
            "name": "getCurrentUnlockPercentage",
            "outputs": [
                {
                    "name": "",
                    "type": "uint256"
                }
            ],
            "payable": false,
            "stateMutability": "view",
            "type": "function"
        },
        {
            "constant": true,
            "inputs": [],
            "name": "commitPhaseBlockCount",
            "outputs": [
                {
                    "name": "",
                    "type": "uint256"
                }
            ],
            "payable": false,
            "stateMutability": "view",
            "type": "function"
        },
        {
            "constant": true,
            "inputs": [
                {
                    "name": "_address",
                    "type": "address"
                }
            ],
            "name": "isWhitelisted",
            "outputs": [
                {
                    "name": "",
                    "type": "bool"
                }
            ],
            "payable": false,
            "stateMutability": "view",
            "type": "function"
        },
        {
            "constant": true,
            "inputs": [],
            "name": "buyPhaseEndBlock",
            "outputs": [
                {
                    "name": "",
                    "type": "uint256"
                }
            ],
            "payable": false,
            "stateMutability": "view",
            "type": "function"
        },
        {
            "constant": true,
            "inputs": [],
            "name": "tokenContract",
            "outputs": [
                {
                    "name": "",
                    "type": "address"
                }
            ],
            "payable": false,
            "stateMutability": "view",
            "type": "function"
        },
        {
            "constant": true,
            "inputs": [
                {
                    "name": "_ethValue",
                    "type": "uint256"
                },
                {
                    "name": "_stageId",
                    "type": "uint8"
                }
            ],
            "name": "getTokenAmountForEthAtStage",
            "outputs": [
                {
                    "name": "",
                    "type": "uint256"
                }
            ],
            "payable": false,
            "stateMutability": "view",
            "type": "function"
        },
        {
            "constant": true,
            "inputs": [],
            "name": "buyPhaseStartBlock",
            "outputs": [
                {
                    "name": "",
                    "type": "uint256"
                }
            ],
            "payable": false,
            "stateMutability": "view",
            "type": "function"
        },
        {
            "constant": true,
            "inputs": [
                {
                    "name": "_address",
                    "type": "address"
                },
                {
                    "name": "_stageId",
                    "type": "uint8"
                }
            ],
            "name": "getParticipantDetailsByStage",
            "outputs": [
                {
                    "name": "stageCommittedETH",
                    "type": "uint256"
                },
                {
                    "name": "stageReturnedETH",
                    "type": "uint256"
                },
                {
                    "name": "stageAcceptedETH",
                    "type": "uint256"
                },
                {
                    "name": "stageWithdrawnETH",
                    "type": "uint256"
                },
                {
                    "name": "stageReservedTokens",
                    "type": "uint256"
                },
                {
                    "name": "stageBoughtTokens",
                    "type": "uint256"
                },
                {
                    "name": "stageReturnedTokens",
                    "type": "uint256"
                }
            ],
            "payable": false,
            "stateMutability": "view",
            "type": "function"
        },
        {
            "constant": true,
            "inputs": [],
            "name": "getCurrentBlockNumber",
            "outputs": [
                {
                    "name": "",
                    "type": "uint256"
                }
            ],
            "payable": false,
            "stateMutability": "view",
            "type": "function"
        },
        {
            "constant": false,
            "inputs": [
                {
                    "name": "_ethAmount",
                    "type": "uint256"
                }
            ],
            "name": "projectWithdraw",
            "outputs": [],
            "payable": false,
            "stateMutability": "nonpayable",
            "type": "function"
        },
        {
            "constant": true,
            "inputs": [],
            "name": "tokenSupply",
            "outputs": [
                {
                    "name": "",
                    "type": "uint256"
                }
            ],
            "payable": false,
            "stateMutability": "view",
            "type": "function"
        },
        {
            "constant": true,
            "inputs": [
                {
                    "name": "_blockNumber",
                    "type": "uint256"
                }
            ],
            "name": "getPriceAtBlock",
            "outputs": [
                {
                    "name": "",
                    "type": "uint256"
                }
            ],
            "payable": false,
            "stateMutability": "view",
            "type": "function"
        },
        {
            "constant": true,
            "inputs": [],
            "name": "tokenContractAddress",
            "outputs": [
                {
                    "name": "",
                    "type": "address"
                }
            ],
            "payable": false,
            "stateMutability": "view",
            "type": "function"
        },
        {
            "constant": true,
            "inputs": [
                {
                    "name": "",
                    "type": "address"
                }
            ],
            "name": "participantsByAddress",
            "outputs": [
                {
                    "name": "whitelisted",
                    "type": "bool"
                },
                {
                    "name": "contributionsCount",
                    "type": "uint32"
                },
                {
                    "name": "committedETH",
                    "type": "uint256"
                },
                {
                    "name": "returnedETH",
                    "type": "uint256"
                },
                {
                    "name": "acceptedETH",
                    "type": "uint256"
                },
                {
                    "name": "withdrawnETH",
                    "type": "uint256"
                },
                {
                    "name": "allocatedETH",
                    "type": "uint256"
                },
                {
                    "name": "reservedTokens",
                    "type": "uint256"
                },
                {
                    "name": "boughtTokens",
                    "type": "uint256"
                },
                {
                    "name": "returnedTokens",
                    "type": "uint256"
                }
            ],
            "payable": false,
            "stateMutability": "view",
            "type": "function"
        },
        {
            "constant": true,
            "inputs": [
                {
                    "name": "_stage",
                    "type": "uint8"
                }
            ],
            "name": "availableEthAtStage",
            "outputs": [
                {
                    "name": "",
                    "type": "uint256"
                }
            ],
            "payable": false,
            "stateMutability": "view",
            "type": "function"
        },
        {
            "constant": true,
            "inputs": [],
            "name": "projectWithdrawCount",
            "outputs": [
                {
                    "name": "",
                    "type": "uint256"
                }
            ],
            "payable": false,
            "stateMutability": "view",
            "type": "function"
        },
        {
            "constant": true,
            "inputs": [
                {
                    "name": "_tokenAmount",
                    "type": "uint256"
                },
                {
                    "name": "_blockNumber",
                    "type": "uint256"
                }
            ],
            "name": "getLockedTokenAmountAtBlock",
            "outputs": [
                {
                    "name": "",
                    "type": "uint256"
                }
            ],
            "payable": false,
            "stateMutability": "view",
            "type": "function"
        },
        {
            "constant": true,
            "inputs": [],
            "name": "projectWalletAddress",
            "outputs": [
                {
                    "name": "",
                    "type": "address"
                }
            ],
            "payable": false,
            "stateMutability": "view",
            "type": "function"
        },
        {
            "constant": true,
            "inputs": [],
            "name": "acceptedETH",
            "outputs": [
                {
                    "name": "",
                    "type": "uint256"
                }
            ],
            "payable": false,
            "stateMutability": "view",
            "type": "function"
        },
        {
            "constant": true,
            "inputs": [],
            "name": "minContribution",
            "outputs": [
                {
                    "name": "",
                    "type": "uint256"
                }
            ],
            "payable": false,
            "stateMutability": "view",
            "type": "function"
        },
        {
            "constant": true,
            "inputs": [],
            "name": "buyPhaseBlockCount",
            "outputs": [
                {
                    "name": "",
                    "type": "uint256"
                }
            ],
            "payable": false,
            "stateMutability": "view",
            "type": "function"
        },
        {
            "constant": true,
            "inputs": [],
            "name": "commitPhaseEndBlock",
            "outputs": [
                {
                    "name": "",
                    "type": "uint256"
                }
            ],
            "payable": false,
            "stateMutability": "view",
            "type": "function"
        },
        {
            "constant": true,
            "inputs": [],
            "name": "whitelistControllerAddress",
            "outputs": [
                {
                    "name": "",
                    "type": "address"
                }
            ],
            "payable": false,
            "stateMutability": "view",
            "type": "function"
        },
        {
            "constant": true,
            "inputs": [],
            "name": "projectAllocatedETH",
            "outputs": [
                {
                    "name": "",
                    "type": "uint256"
                }
            ],
            "payable": false,
            "stateMutability": "view",
            "type": "function"
        },
        {
            "constant": true,
            "inputs": [
                {
                    "name": "_tokenAmount",
                    "type": "uint256"
                },
                {
                    "name": "_stageId",
                    "type": "uint8"
                }
            ],
            "name": "getEthAmountForTokensAtStage",
            "outputs": [
                {
                    "name": "",
                    "type": "uint256"
                }
            ],
            "payable": false,
            "stateMutability": "view",
            "type": "function"
        },
        {
            "constant": false,
            "inputs": [
                {
                    "name": "_address",
                    "type": "address[]"
                },
                {
                    "name": "_approve",
                    "type": "bool"
                }
            ],
            "name": "whitelistMultiple",
            "outputs": [],
            "payable": false,
            "stateMutability": "nonpayable",
            "type": "function"
        },
        {
            "constant": true,
            "inputs": [
                {
                    "name": "_participantAddress",
                    "type": "address"
                }
            ],
            "name": "getLockedTokenAmount",
            "outputs": [
                {
                    "name": "",
                    "type": "uint256"
                }
            ],
            "payable": false,
            "stateMutability": "view",
            "type": "function"
        },
        {
            "constant": true,
            "inputs": [
                {
                    "name": "_participantAddress",
                    "type": "address"
                }
            ],
            "name": "canCancelByTokens",
            "outputs": [
                {
                    "name": "",
                    "type": "bool"
                }
            ],
            "payable": false,
            "stateMutability": "view",
            "type": "function"
        },
        {
            "constant": true,
            "inputs": [],
            "name": "committedETH",
            "outputs": [
                {
                    "name": "",
                    "type": "uint256"
                }
            ],
            "payable": false,
            "stateMutability": "view",
            "type": "function"
        },
        {
            "constant": true,
            "inputs": [],
            "name": "commitPhasePrice",
            "outputs": [
                {
                    "name": "",
                    "type": "uint256"
                }
            ],
            "payable": false,
            "stateMutability": "view",
            "type": "function"
        },
        {
            "constant": true,
            "inputs": [
                {
                    "name": "_participantAddress",
                    "type": "address"
                }
            ],
            "name": "getCancelModes",
            "outputs": [
                {
                    "name": "byEth",
                    "type": "bool"
                },
                {
                    "name": "byTokens",
                    "type": "bool"
                }
            ],
            "payable": false,
            "stateMutability": "view",
            "type": "function"
        },
        {
            "constant": false,
            "inputs": [],
            "name": "cancel",
            "outputs": [],
            "payable": false,
            "stateMutability": "nonpayable",
            "type": "function"
        },
        {
            "constant": true,
            "inputs": [],
            "name": "getCurrentPrice",
            "outputs": [
                {
                    "name": "",
                    "type": "uint256"
                }
            ],
            "payable": false,
            "stateMutability": "view",
            "type": "function"
        },
        {
            "constant": true,
            "inputs": [],
            "name": "stageBlockCount",
            "outputs": [
                {
                    "name": "",
                    "type": "uint256"
                }
            ],
            "payable": false,
            "stateMutability": "view",
            "type": "function"
        },
        {
            "constant": true,
            "inputs": [],
            "name": "getProjectAvailableEth",
            "outputs": [
                {
                    "name": "_amount",
                    "type": "uint256"
                }
            ],
            "payable": false,
            "stateMutability": "view",
            "type": "function"
        },
        {
            "constant": true,
            "inputs": [],
            "name": "getCurrentStage",
            "outputs": [
                {
                    "name": "",
                    "type": "uint8"
                }
            ],
            "payable": false,
            "stateMutability": "view",
            "type": "function"
        },
        {
            "constant": true,
            "inputs": [],
            "name": "withdrawnETH",
            "outputs": [
                {
                    "name": "",
                    "type": "uint256"
                }
            ],
            "payable": false,
            "stateMutability": "view",
            "type": "function"
        },
        {
            "constant": true,
            "inputs": [],
            "name": "deployerAddress",
            "outputs": [
                {
                    "name": "",
                    "type": "address"
                }
            ],
            "payable": false,
            "stateMutability": "view",
            "type": "function"
        },
        {
            "constant": true,
            "inputs": [],
            "name": "stageCount",
            "outputs": [
                {
                    "name": "",
                    "type": "uint8"
                }
            ],
            "payable": false,
            "stateMutability": "view",
            "type": "function"
        },
        {
            "constant": false,
            "inputs": [
                {
                    "name": "_address",
                    "type": "address"
                },
                {
                    "name": "_approve",
                    "type": "bool"
                }
            ],
            "name": "whitelist",
            "outputs": [],
            "payable": false,
            "stateMutability": "nonpayable",
            "type": "function"
        },
        {
            "constant": true,
            "inputs": [
                {
                    "name": "_selectedBlock",
                    "type": "uint256"
                }
            ],
            "name": "getStageAtBlock",
            "outputs": [
                {
                    "name": "",
                    "type": "uint8"
                }
            ],
            "payable": false,
            "stateMutability": "view",
            "type": "function"
        },
        {
            "constant": true,
            "inputs": [],
            "name": "projectWithdrawnETH",
            "outputs": [
                {
                    "name": "",
                    "type": "uint256"
                }
            ],
            "payable": false,
            "stateMutability": "view",
            "type": "function"
        },
        {
            "inputs": [],
            "payable": false,
            "stateMutability": "nonpayable",
            "type": "constructor"
        },
        {
            "payable": true,
            "stateMutability": "payable",
            "type": "fallback"
        },
        {
            "anonymous": false,
            "inputs": [
                {
                    "indexed": true,
                    "name": "_type",
                    "type": "uint8"
                },
                {
                    "indexed": true,
                    "name": "_id",
                    "type": "uint32"
                },
                {
                    "indexed": true,
                    "name": "_address",
                    "type": "address"
                },
                {
                    "indexed": false,
                    "name": "_value",
                    "type": "uint256"
                }
            ],
            "name": "ApplicationEvent",
            "type": "event"
        },
        {
            "anonymous": false,
            "inputs": [
                {
                    "indexed": true,
                    "name": "_type",
                    "type": "uint8"
                },
                {
                    "indexed": true,
                    "name": "_address",
                    "type": "address"
                },
                {
                    "indexed": true,
                    "name": "_value",
                    "type": "uint256"
                }
            ],
            "name": "TransferEvent",
            "type": "event"
        }
    ],
    "bytecode": "6080604052600080546001600160a01b031916731820a4b7618bde71dce8cdc73aab6c95905fad2417815566038d7ea4c68000600e55601b5534801561004457600080fd5b50600280546001600160a01b0319163317905560008054604080517f455243373737546f6b656e73526563697069656e740000000000000000000000815281519081900360150181207f29965a1d00000000000000000000000000000000000000000000000000000000825230600483018190526024830191909152604482015290516001600160a01b0392909216926329965a1d9260648084019382900301818387803b1580156100f557600080fd5b505af1158015610109573d6000803e3d6000fd5b5050505061289c8061011c6000396000f3fe6080604052600436106103345760003560e01c8063925470f9116101ab578063d106ed78116100f7578063eedbe31d11610095578063f33261ac1161006f578063f33261ac14610ca2578063f59c370814610cb7578063f8388eb614610cf2578063ff14e8ea14610d1c57610334565b8063eedbe31d14610c4d578063ef7953a214610c78578063efdee94f14610c8d57610334565b8063ea8a1af0116100d1578063ea8a1af014610bf9578063eb91d37e14610c0e578063ebf0ecce14610c23578063ebfb293d14610c3857610334565b8063d106ed7814610b81578063d7d4c35c14610b96578063e82dc87514610bab57610334565b8063b307404d11610164578063c2df08e51161013e578063c2df08e514610a36578063cc6a2c0214610a69578063cf0d2b4f14610b1b578063d00017d914610b4e57610334565b8063b307404d146109f7578063bdbb3d2314610a0c578063bf11408714610a2157610334565b8063925470f91461095e57806399ba36cb146109735780639a48d8b0146109a35780639f3a92ff146109b8578063aaffadf3146109cd578063ac4c9ea1146109e257610334565b8063385b2884116102855780636fd902e1116102235780637dddc573116101fd5780637dddc5731461086857806382edaf94146108925780638344394e146108a75780638a771c671461093157610334565b80636fd902e114610814578063760c234f146108295780637824407f1461085357610334565b806355a373d61161025f57806355a373d6146107435780635a7b28da146107585780635dabfbcf1461078b5780636217f370146107a057610334565b8063385b2884146106e65780633af32abf146106fb578063526f35771461072e57610334565b8063158ef93e116102f25780631faa3bad116102cc5780631faa3bad1461063b578063362f04c0146106a757806336f62d4c146106bc578063381df6f7146106d157610334565b8063158ef93e146105c65780631e88b2aa146105db5780631f2698ab1461062657610334565b806223de29146103f1578063054f7d9c146104e85780630924399f146105115780630a2b2fae146105445780630de06a041461056b57806312fa6feb146105b1575b60018054600160a01b900460ff16151514610384576040805162461bcd60e51b815260206004820152601d60248201526000805160206127e7833981519152604482015290519081900360640190fd5b600154600160a81b900460ff16156103d1576040805162461bcd60e51b815260206004820152601b60248201526000805160206127a0833981519152604482015290519081900360640190fd5b600e5434106103e7576103e2610d31565b6103ef565b6103ef610eba565b005b3480156103fd57600080fd5b506103ef600480360360c081101561041457600080fd5b6001600160a01b03823581169260208101358216926040820135909216916060820135919081019060a08101608082013564010000000081111561045757600080fd5b82018360208201111561046957600080fd5b8035906020019184600183028401116401000000008311171561048b57600080fd5b9193909290916020810190356401000000008111156104a957600080fd5b8201836020820111156104bb57600080fd5b803590602001918460018302840111640100000000831117156104dd57600080fd5b509092509050611003565b3480156104f457600080fd5b506104fd6110df565b604080519115158252519081900360200190f35b34801561051d57600080fd5b506104fd6004803603602081101561053457600080fd5b50356001600160a01b03166110ef565b34801561055057600080fd5b5061055961113b565b60408051918252519081900360200190f35b34801561057757600080fd5b506105956004803603602081101561058e57600080fd5b5035611141565b604080516001600160a01b039092168252519081900360200190f35b3480156105bd57600080fd5b506104fd61115c565b3480156105d257600080fd5b506104fd61116c565b3480156105e757600080fd5b50610608600480360360208110156105fe57600080fd5b503560ff1661117c565b60408051938452602084019290925282820152519081900360600190f35b34801561063257600080fd5b506104fd61119d565b34801561064757600080fd5b506103ef600480360361012081101561065f57600080fd5b506001600160a01b03813581169160208101358216916040820135169060608101359060808101359060a08101359060ff60c0820135169060e08101359061010001356111ad565b3480156106b357600080fd5b50610559611399565b3480156106c857600080fd5b5061055961139f565b3480156106dd57600080fd5b506105596113a5565b3480156106f257600080fd5b50610559611436565b34801561070757600080fd5b506104fd6004803603602081101561071e57600080fd5b50356001600160a01b031661143c565b34801561073a57600080fd5b5061055961145a565b34801561074f57600080fd5b50610595611460565b34801561076457600080fd5b506105596004803603604081101561077b57600080fd5b508035906020013560ff1661146f565b34801561079757600080fd5b506105596114aa565b3480156107ac57600080fd5b506107dc600480360360408110156107c357600080fd5b5080356001600160a01b0316906020013560ff166114b0565b604080519788526020880196909652868601949094526060860192909252608085015260a084015260c0830152519081900360e00190f35b34801561082057600080fd5b5061055961150b565b34801561083557600080fd5b506103ef6004803603602081101561084c57600080fd5b503561150f565b34801561085f57600080fd5b506105596116c1565b34801561087457600080fd5b506105596004803603602081101561088b57600080fd5b50356116c7565b34801561089e57600080fd5b50610595611703565b3480156108b357600080fd5b506108da600480360360208110156108ca57600080fd5b50356001600160a01b0316611712565b604080519a15158b5263ffffffff90991660208b0152898901979097526060890195909552608088019390935260a087019190915260c086015260e085015261010084015261012083015251908190036101400190f35b34801561093d57600080fd5b506105596004803603602081101561095457600080fd5b503560ff16611761565b34801561096a57600080fd5b50610559611809565b34801561097f57600080fd5b506105596004803603604081101561099657600080fd5b508035906020013561180f565b3480156109af57600080fd5b50610595611880565b3480156109c457600080fd5b5061055961188f565b3480156109d957600080fd5b50610559611895565b3480156109ee57600080fd5b5061055961189b565b348015610a0357600080fd5b506105596118a1565b348015610a1857600080fd5b506105956118a7565b348015610a2d57600080fd5b506105596118b6565b348015610a4257600080fd5b5061055960048036036040811015610a5957600080fd5b508035906020013560ff166118bc565b348015610a7557600080fd5b506103ef60048036036040811015610a8c57600080fd5b810190602081018135640100000000811115610aa757600080fd5b820183602082011115610ab957600080fd5b80359060200191846020830284011164010000000083111715610adb57600080fd5b91908080602002602001604051908101604052809392919081815260200183836020028082843760009201919091525092955050505035151590506118f1565b348015610b2757600080fd5b5061055960048036036020811015610b3e57600080fd5b50356001600160a01b031661192a565b348015610b5a57600080fd5b506104fd60048036036020811015610b7157600080fd5b50356001600160a01b031661196d565b348015610b8d57600080fd5b5061055961198f565b348015610ba257600080fd5b50610559611995565b348015610bb757600080fd5b50610bde60048036036020811015610bce57600080fd5b50356001600160a01b031661199b565b60408051921515835290151560208301528051918290030190f35b348015610c0557600080fd5b506103ef610eba565b348015610c1a57600080fd5b506105596119e7565b348015610c2f57600080fd5b506105596119fe565b348015610c4457600080fd5b50610559611a04565b348015610c5957600080fd5b50610c62611a92565b6040805160ff9092168252519081900360200190f35b348015610c8457600080fd5b50610559611aa4565b348015610c9957600080fd5b50610595611aaa565b348015610cae57600080fd5b50610c62611ab9565b348015610cc357600080fd5b506103ef60048036036040811015610cda57600080fd5b506001600160a01b0381351690602001351515611ac2565b348015610cfe57600080fd5b50610c6260048036036020811015610d1557600080fd5b5035611bf4565b348015610d2857600080fd5b50610559611c60565b60018054600160a01b900460ff16151514610d81576040805162461bcd60e51b815260206004820152601d60248201526000805160206127e7833981519152604482015290519081900360640190fd5b6000610d8b61150b565b90506010548110158015610da157506014548111155b610df2576040805162461bcd60e51b815260206004820152601c60248201527f436f6e7472616374206f75747369646520627579696e2072616e676500000000604482015290519081900360640190fd5b600154600160a81b900460ff1615610e3f576040805162461bcd60e51b815260206004820152601b60248201526000805160206127a0833981519152604482015290519081900360640190fd5b60078054340190553360009081526019602052604090208054610100900463ffffffff16610e9157601b8054600101908190556000908152601a6020526040902080546001600160a01b031916331790555b610e9b3334611c66565b805460ff16151560011415610eb657610eb63360045b611d3d565b5050565b60018054600160a01b900460ff16151514610f0a576040805162461bcd60e51b815260206004820152601d60248201526000805160206127e7833981519152604482015290519081900360640190fd5b600154600160a81b900460ff1615610f57576040805162461bcd60e51b815260206004820152601b60248201526000805160206127a0833981519152604482015290519081900360640190fd5b3360009081526019602052604090205460ff16151560011415610fab5760405162461bcd60e51b815260040180806020018281038252604a815260200180612709604a913960600191505060405180910390fd5b610fb4336110ef565b15610fca57610fc53360035b61201e565b611001565b60405162461bcd60e51b81526004018080602001828103825260218152602001806128076021913960400191505060405180910390fd5b565b60018054600160a01b900460ff16151514611053576040805162461bcd60e51b815260206004820152601d60248201526000805160206127e7833981519152604482015290519081900360640190fd5b6001546001600160a01b031633146110a8576040805162461bcd60e51b815260206004820152601360248201527224b73b30b634b2103a37b5b2b71039b2b73a1760691b604482015290519081900360640190fd5b6004546001600160a01b03888116911614156110cb5760068054860190556110d5565b6110d58786612172565b5050505050505050565b600154600160a81b900460ff1681565b6001600160a01b0381166000908152601960205260408120600181015415801590611121575080600201548160010154115b15611130576001915050611136565b60009150505b919050565b60085481565b601a602052600090815260409020546001600160a01b031681565b600154600160b81b900460ff1681565b600154600160a01b900460ff1681565b60176020526000908152604090208054600182015460029092015490919083565b600154600160b01b900460ff1681565b6002546001600160a01b031633146111f65760405162461bcd60e51b81526004018080602001828103825260278152602001806127c06027913960400191505060405180910390fd5b600154600160a01b900460ff1615611255576040805162461bcd60e51b815260206004820181905260248201527f436f6e747261637420697320616c726561647920696e697469616c697a65642e604482015290519081900360640190fd5b600380546001600160a01b03808c166001600160a01b03199283161792839055600580548c8316908416179055600480548b8316908416179055601089905560128890558789016011819055600f889055601686905560018054909316939091169290921781556018805460ff90811660009081526017602052604090208a8155808401948555600281018990558254808316850190921660ff19909216919091179091559154905b8560ff168160ff1611611362576018805460ff908116600090815260176020526040902060018581018255948801850185820190815584831688028b01600290920191909155825460ff1981169083168601909216919091179091555491016112fe565b5060115460018082016013556014839055910360001901601555805460ff60a01b1916600160a01b17905550505050505050505050565b601b5481565b60105481565b60006014816113b261150b565b9050601354811180156113c6575060145481105b156114185760006113e2601354836124e690919063ffffffff16565b60155490915061140e906114028360ff8716600a0a63ffffffff61254316565b9063ffffffff61259c16565b9350505050611433565b601454811061142c57600092505050611433565b6000925050505b90565b60125481565b6001600160a01b031660009081526019602052604090205460ff1690565b60145481565b6001546001600160a01b031681565b60ff81166000908152601760205260408120600201546114a19061140285670de0b6b3a764000063ffffffff61254316565b90505b92915050565b60135481565b6001600160a01b0391909116600090815260196020908152604080832060ff90941683526009909301905220805460018201546002830154600384015460058501546006860154600790960154949693959294919390929190565b4390565b60018054600160a01b900460ff1615151461155f576040805162461bcd60e51b815260206004820152601d60248201526000805160206127e7833981519152604482015290519081900360640190fd5b6004546001600160a01b031633146115be576040805162461bcd60e51b815260206004820152601c60248201527f4f6e6c792070726f6a6563742077616c6c657420616464726573732e00000000604482015290519081900360640190fd5b60006115c8611a04565b9050808211156116095760405162461bcd60e51b815260040180806020018281038252603d8152602001806126cc603d913960400191505060405180910390fd5b600b805460010190819055600d8054840190556004546001600160a01b03169063ffffffff16600760ff16600080516020612828833981519152856040518082815260200191505060405180910390a460045460405183916001600160a01b03169060059060008051602061284883398151915290600090a46004546040516001600160a01b039091169083156108fc029084906000818181858888f193505050501580156116bc573d6000803e3d6000fd5b505050565b60065481565b6000806116d383611bf4565b60185490915060ff90811690821610156111305760ff166000908152601760205260409020600201549050611136565b6003546001600160a01b031681565b60196020526000908152604090208054600182015460028301546003840154600485015460058601546006870154600788015460089098015460ff88169861010090980463ffffffff1697908a565b60ff811660009081526017602090815260408083206002015460015482516370a0823160e01b815230600482015292516114a494670de0b6b3a76400009461140294936001600160a01b0316926370a0823192602480840193919291829003018186803b1580156117d157600080fd5b505afa1580156117e5573d6000803e3d6000fd5b505050506040513d60208110156117fb57600080fd5b50519063ffffffff61254316565b600b5481565b60008215611878576013548210156118285750816114a4565b60145482101561187857601483600061185c68056bc75e2d6310000061140261184f6113a5565b859063ffffffff61254316565b905061186e828263ffffffff6124e616565b93505050506114a4565b5060006114a4565b6004546001600160a01b031681565b60095481565b600e5481565b60155481565b60115481565b6005546001600160a01b031681565b600c5481565b60ff81166000908152601760205260408120600201546114a190670de0b6b3a76400009061140290869063ffffffff61254316565b60005b82518161ffff1610156116bc57611922838261ffff168151811061191457fe5b602002602001015183611ac2565b6001016118f4565b6001600160a01b0381166000908152601960205260408120600881015460078201546006909201549091611966910161196161150b565b61180f565b0392915050565b6000806119798361192a565b111561198757506001611136565b506000919050565b60075481565b600f5481565b6001600160a01b0381166000908152601960205260408120805482919060ff161515600114156119d5576119ce8461196d565b91506119e1565b6119de846110ef565b92505b50915091565b60006119f96119f461150b565b6116c7565b905090565b60165481565b600d54600c5460009182911115611a2d57600d54600c54611a2a9163ffffffff6124e616565b90505b6000611a5c82611a50600d54611a50600a546009546124e690919063ffffffff16565b9063ffffffff6124e616565b90506000611a7868056bc75e2d6310000061140261184f6113a5565b9050611a8a818463ffffffff61260616565b935050505090565b60006119f9611a9f61150b565b611bf4565b600a5481565b6002546001600160a01b031681565b60185460ff1681565b60018054600160a01b900460ff16151514611b12576040805162461bcd60e51b815260206004820152601d60248201526000805160206127e7833981519152604482015290519081900360640190fd5b600154600160a81b900460ff1615611b5f576040805162461bcd60e51b815260206004820152601b60248201526000805160206127a0833981519152604482015290519081900360640190fd5b6005546001600160a01b03163314611ba85760405162461bcd60e51b81526004018080602001828103825260338152602001806126996033913960400191505060405180910390fd5b6001600160a01b03821660009081526019602052604090208115611be157805460ff19166001178155611bdc836005610eb1565b6116bc565b805460ff191681556116bc836006610fc0565b60006011548211611c0757506000611136565b6000601654600101601154840381611c1b57fe5b0460ff8116600090815260176020526040902060019081015491019150831415611c4a57600019019050611136565b60185460ff1681106114a45760ff915050611136565b600d5481565b6000611c70611a92565b6001600160a01b0384166000908152601960209081526040808320805464ffffffff0019811660016101009283900463ffffffff908116820116909202178255810180548801905560ff851684526009810190925282208054860181559293509190611cdc858561146f565b600583018054820190556006840180548201905583549091506001600160a01b03871690610100900463ffffffff16600160ff16600080516020612828833981519152886040518082815260200191505060405180910390a4505050505050565b6001600160a01b038216600090815260196020526040812090611d5e611a92565b905060005b8160ff168160ff16116120175760ff811660009081526009840160205260409020600284015460038501546001860154849392919091019081101561200c57600582018054600688018054919091039055600090819055611dc386611761565b600284015484549192509003600082821115611e16575050600383015460028085015460018601805487546008805492909103939093039490940385900393840190915590890180548301905581905581905b8115611f6657600980548301905560038901805483019055600285018054830190556000611e44838861146f565b9050808660060160008282540192505081905550808a600701600082825401925050819055506060600160009054906101000a90046001600160a01b03166001600160a01b0316639bd9bbc68e84846040518463ffffffff1660e01b815260040180846001600160a01b03166001600160a01b0316815260200183815260200180602001828103825283818151815260200191508051906020019080838360005b83811015611efd578181015183820152602001611ee5565b50505050905090810190601f168015611f2a5780820380516001836020036101000a031916815260200191505b50945050505050600060405180830381600087803b158015611f4b57600080fd5b505af1158015611f5f573d6000803e3d6000fd5b5050505050505b8015611fcb576040516001600160a01b038c169082156108fc029083906000818181858888f19350505050158015611fa2573d6000803e3d6000fd5b5060405181906001600160a01b038d169060019060008051602061284883398151915290600090a45b8a6001600160a01b03168660ff1663ffffffff168b60ff16600080516020612828833981519152856040518082815260200191505060405180910390a45050505b505050600101611d63565b5050505050565b6001600160a01b038216600090815260196020526040902060028101546004820154600183015403038015612135576000600683018190556004830180548301905560088054830190556040516001600160a01b0386169134840180156108fc02929091818181858888f1935050505015801561209f573d6000803e3d6000fd5b50600060ff8416600614156120b6575060026120c6565b60ff8416600314156120c6575060035b81856001600160a01b03168260ff1660008051602061284883398151915260405160405180910390a482546040805184815290516001600160a01b0388169263ffffffff610100909104169160ff8816916000805160206128288339815191529181900360200190a45061216c565b60405162461bcd60e51b815260040180806020018281038252602c815260200180612753602c913960400191505060405180910390fd5b50505050565b6001600160a01b0382166000908152601960205260409020805460ff161515600114156124af5760006121a361150b565b90508260006121b18661192a565b9050600080828411156121c75782840391508293505b6005860154600c546121de9163ffffffff6124e616565b600c5583156124a9576000806121f2611a92565b9050805b60ff8116600090815260098a01602052604081206007810154600682015460059092015490910181810392919061222d908c61180f565b039050801561230257808910156122415750875b600061224d82856118bc565b60088d0180548401905560ff8516600090815260098e01602052604090206007018054840190559050612286868263ffffffff61260616565b60ff8516600090815260098e01602052604081206003018054840190559096506122bf6122b9858563ffffffff6124e616565b866118bc565b60ff8616600090815260098f01602052604090206004018190559788019790506122ef8b8463ffffffff6124e616565b9a508a6122ff575050505061230d565b50505b5050600019016121f6565b50831561240f576060600160009054906101000a90046001600160a01b03166001600160a01b0316639bd9bbc68c87846040518463ffffffff1660e01b815260040180846001600160a01b03166001600160a01b0316815260200183815260200180602001828103825283818151815260200191508051906020019080838360005b838110156123a757818101518382015260200161238f565b50505050905090810190601f1680156123d45780820380516001836020036101000a031916815260200191505b50945050505050600060405180830381600087803b1580156123f557600080fd5b505af1158015612409573d6000803e3d6000fd5b50505050505b600a80548301905560058801839055600c54612431908463ffffffff61260616565b600c55600488018054830190556040516001600160a01b038b169083156108fc029084906000818181858888f19350505050158015612474573d6000803e3d6000fd5b5060405182906001600160a01b038c169060049060008051602061284883398151915290600090a45050505050505050610eb6565b50505050505b60405162461bcd60e51b81526004018080602001828103825260388152602001806126616038913960400191505060405180910390fd5b60008282111561253d576040805162461bcd60e51b815260206004820152601e60248201527f536166654d6174683a207375627472616374696f6e206f766572666c6f770000604482015290519081900360640190fd5b50900390565b600082612552575060006114a4565b8282028284828161255f57fe5b04146114a15760405162461bcd60e51b815260040180806020018281038252602181526020018061277f6021913960400191505060405180910390fd5b60008082116125f2576040805162461bcd60e51b815260206004820152601a60248201527f536166654d6174683a206469766973696f6e206279207a65726f000000000000604482015290519081900360640190fd5b60008284816125fd57fe5b04949350505050565b6000828201838110156114a1576040805162461bcd60e51b815260206004820152601b60248201527f536166654d6174683a206164646974696f6e206f766572666c6f770000000000604482015290519081900360640190fdfe5769746864726177206e6f7420706f737369626c652e205061727469636970616e7420686173206e6f206c6f636b656420746f6b656e732e4f6e6c79207468652077686974656c69737420636f6e74726f6c6c65722063616e2063616c6c2074686973206d6574686f642e52657175657374656420616d6f756e7420746f206c617267652c206e6f7420656e6f75676820756e6c6f636b65642045544820617661696c61626c652e436f6d6d69746d656e742063616e63656c696e67206f6e6c7920706f737369626c65207573696e6720746f6b656e7320616674657220796f7520676f742077686974656c69737465642e5061727469636970616e7420686173206e6f7420636f6e747269627574656420616e7920455448207965742e536166654d6174683a206d756c7469706c69636174696f6e206f766572666c6f77436f6e74726163742063616e206e6f742062652066726f7a656e2e00000000004f6e6c7920746865206465706c6f7965722063616e2063616c6c2074686973206d6574686f642e436f6e7472616374206d75737420626520696e697469616c697a65642e0000005061727469636970616e7420686173206e6f20636f6e747269627574696f6e732e16f82a2ca1b2197243224ac86227e7ed895a06d97b3f9a4e8221804a1c402f8e2938c8ea03db725889f8f57dcc5e7e6e60a26dada7197cd0c4261bcc035d6fbca265627a7a72305820d4ed9df2930fe62d8ff804ec419894e8b5502ef327e300ca4c9b68feb7370c7364736f6c634300050a0032",
    "sourcePath": "/Users/jenil/Desktop/code/rICO-smart-contracts/contracts/ReversibleICO.sol",
    "compiler": {
        "name": "solc",
        "version": "0.5.10+commit.5a6ea5b1"
    },
    "functionHashes": {
        "acceptedETH()": "9f3a92ff",
        "availableEthAtStage(uint8)": "8a771c67",
        "buyPhaseBlockCount()": "ac4c9ea1",
        "buyPhaseEndBlock()": "526f3577",
        "buyPhaseStartBlock()": "5dabfbcf",
        "canCancelByEth(address)": "0924399f",
        "canCancelByTokens(address)": "d00017d9",
        "cancel()": "ea8a1af0",
        "commitPhaseBlockCount()": "385b2884",
        "commitPhaseEndBlock()": "b307404d",
        "commitPhasePrice()": "d7d4c35c",
        "commitPhaseStartBlock()": "36f62d4c",
        "committedETH()": "d106ed78",
        "deployerAddress()": "efdee94f",
        "ended()": "12fa6feb",
        "frozen()": "054f7d9c",
        "getCancelModes(address)": "e82dc875",
        "getCurrentBlockNumber()": "6fd902e1",
        "getCurrentPrice()": "eb91d37e",
        "getCurrentStage()": "eedbe31d",
        "getCurrentUnlockPercentage()": "381df6f7",
        "getEthAmountForTokensAtStage(uint256,uint8)": "c2df08e5",
        "getLockedTokenAmount(address)": "cf0d2b4f",
        "getLockedTokenAmountAtBlock(uint256,uint256)": "99ba36cb",
        "getParticipantDetailsByStage(address,uint8)": "6217f370",
        "getPriceAtBlock(uint256)": "7dddc573",
        "getProjectAvailableEth()": "ebfb293d",
        "getStageAtBlock(uint256)": "f8388eb6",
        "getTokenAmountForEthAtStage(uint256,uint8)": "5a7b28da",
        "init(address,address,address,uint256,uint256,uint256,uint8,uint256,uint256)": "1faa3bad",
        "initialized()": "158ef93e",
        "isWhitelisted(address)": "3af32abf",
        "minContribution()": "aaffadf3",
        "participantCount()": "362f04c0",
        "participantsByAddress(address)": "8344394e",
        "participantsById(uint256)": "0de06a04",
        "projectAllocatedETH()": "bf114087",
        "projectWalletAddress()": "9a48d8b0",
        "projectWithdraw(uint256)": "760c234f",
        "projectWithdrawCount()": "925470f9",
        "projectWithdrawnETH()": "ff14e8ea",
        "returnedETH()": "0a2b2fae",
        "stageBlockCount()": "ebf0ecce",
        "stageCount()": "f33261ac",
        "stages(uint8)": "1e88b2aa",
        "started()": "1f2698ab",
        "tokenContract()": "55a373d6",
        "tokenContractAddress()": "82edaf94",
        "tokenSupply()": "7824407f",
        "tokensReceived(address,address,address,uint256,bytes,bytes)": "0023de29",
        "whitelist(address,bool)": "f59c3708",
        "whitelistControllerAddress()": "bdbb3d23",
        "whitelistMultiple(address[],bool)": "cc6a2c02",
        "withdrawnETH()": "ef7953a2"
    },
    "gasEstimates": {
        "creation": {
            "codeDepositCost": "2079200",
            "executionCost": "infinite",
            "totalCost": "infinite"
        },
        "external": {
            "": "infinite",
            "acceptedETH()": "510",
            "availableEthAtStage(uint8)": "infinite",
            "buyPhaseBlockCount()": "554",
            "buyPhaseEndBlock()": "511",
            "buyPhaseStartBlock()": "510",
            "canCancelByEth(address)": "1143",
            "canCancelByTokens(address)": "infinite",
            "cancel()": "infinite",
            "commitPhaseBlockCount()": "467",
            "commitPhaseEndBlock()": "466",
            "commitPhasePrice()": "488",
            "commitPhaseStartBlock()": "510",
            "committedETH()": "466",
            "deployerAddress()": "548",
            "ended()": "584",
            "frozen()": "496",
            "getCancelModes(address)": "infinite",
            "getCurrentBlockNumber()": "265",
            "getCurrentPrice()": "2167",
            "getCurrentStage()": "1583",
            "getCurrentUnlockPercentage()": "infinite",
            "getEthAmountForTokensAtStage(uint256,uint8)": "infinite",
            "getLockedTokenAmount(address)": "infinite",
            "getLockedTokenAmountAtBlock(uint256,uint256)": "infinite",
            "getParticipantDetailsByStage(address,uint8)": "2203",
            "getPriceAtBlock(uint256)": "2123",
            "getProjectAvailableEth()": "infinite",
            "getStageAtBlock(uint256)": "1604",
            "getTokenAmountForEthAtStage(uint256,uint8)": "infinite",
            "init(address,address,address,uint256,uint256,uint256,uint8,uint256,uint256)": "infinite",
            "initialized()": "496",
            "isWhitelisted(address)": "645",
            "minContribution()": "532",
            "participantCount()": "488",
            "participantsByAddress(address)": "2540",
            "participantsById(uint256)": "680",
            "projectAllocatedETH()": "510",
            "projectWalletAddress()": "527",
            "projectWithdraw(uint256)": "infinite",
            "projectWithdrawCount()": "444",
            "projectWithdrawnETH()": "530",
            "returnedETH()": "511",
            "stageBlockCount()": "509",
            "stageCount()": "479",
            "stages(uint8)": "1075",
            "started()": "540",
            "tokenContract()": "505",
            "tokenContractAddress()": "526",
            "tokenSupply()": "510",
            "tokensReceived(address,address,address,uint256,bytes,bytes)": "infinite",
            "whitelist(address,bool)": "infinite",
            "whitelistControllerAddress()": "527",
            "whitelistMultiple(address[],bool)": "infinite",
            "withdrawnETH()": "487"
        },
        "internal": {
            "acceptContributionsForAddress(address,uint8)": "infinite",
            "cancelContributionsForAddress(address,uint8)": "infinite",
            "commit()": "infinite",
            "recordNewContribution(address,uint256)": "infinite",
            "withdraw(address,uint256)": "infinite"
        }
    }
}