{
  "contractName": "ReversableICO",
  "abi": [
    {
      "constant": true,
      "inputs": [],
      "name": "frozen",
      "outputs": [
        {
          "name": "",
          "type": "bool"
        }
      ],
      "payable": false,
      "stateMutability": "view",
      "type": "function"
    },
    {
      "constant": true,
      "inputs": [],
      "name": "RicoStageBlockCount",
      "outputs": [
        {
          "name": "",
          "type": "uint256"
        }
      ],
      "payable": false,
      "stateMutability": "view",
      "type": "function"
    },
    {
      "constant": true,
      "inputs": [],
      "name": "initialized",
      "outputs": [
        {
          "name": "",
          "type": "bool"
        }
      ],
      "payable": false,
      "stateMutability": "view",
      "type": "function"
    },
    {
      "constant": true,
      "inputs": [],
      "name": "started",
      "outputs": [
        {
          "name": "",
          "type": "bool"
        }
      ],
      "payable": false,
      "stateMutability": "view",
      "type": "function"
    },
    {
      "constant": true,
      "inputs": [
        {
          "name": "",
          "type": "address"
        }
      ],
      "name": "ParticipantsByAddress",
      "outputs": [
        {
          "name": "whitelisted",
          "type": "bool"
        },
        {
          "name": "contributionsCount",
          "type": "uint16"
        }
      ],
      "payable": false,
      "stateMutability": "view",
      "type": "function"
    },
    {
      "constant": true,
      "inputs": [],
      "name": "SaleStageBlockCount",
      "outputs": [
        {
          "name": "",
          "type": "uint256"
        }
      ],
      "payable": false,
      "stateMutability": "view",
      "type": "function"
    },
    {
      "constant": true,
      "inputs": [
        {
          "name": "",
          "type": "uint256"
        }
      ],
      "name": "ParticipantsById",
      "outputs": [
        {
          "name": "",
          "type": "address"
        }
      ],
      "payable": false,
      "stateMutability": "view",
      "type": "function"
    },
    {
      "constant": true,
      "inputs": [],
      "name": "EndBlock",
      "outputs": [
        {
          "name": "",
          "type": "uint256"
        }
      ],
      "payable": false,
      "stateMutability": "view",
      "type": "function"
    },
    {
      "constant": true,
      "inputs": [],
      "name": "StartBlock",
      "outputs": [
        {
          "name": "",
          "type": "uint256"
        }
      ],
      "payable": false,
      "stateMutability": "view",
      "type": "function"
    },
    {
      "constant": true,
      "inputs": [],
      "name": "deployerAddress",
      "outputs": [
        {
          "name": "",
          "type": "address"
        }
      ],
      "payable": false,
      "stateMutability": "view",
      "type": "function"
    },
    {
      "inputs": [],
      "payable": false,
      "stateMutability": "nonpayable",
      "type": "constructor"
    },
    {
      "payable": true,
      "stateMutability": "payable",
      "type": "fallback"
    },
    {
      "constant": false,
      "inputs": [
        {
          "name": "_TokenController",
          "type": "address"
        },
        {
          "name": "_StartBlock",
          "type": "uint256"
        },
        {
          "name": "_EndBlock",
          "type": "uint256"
        },
        {
          "name": "_SaleStageBlockCount",
          "type": "uint256"
        },
        {
          "name": "_RicoStageBlockCount",
          "type": "uint256"
        }
      ],
      "name": "addSettings",
      "outputs": [],
      "payable": false,
      "stateMutability": "nonpayable",
      "type": "function"
    },
    {
      "constant": true,
      "inputs": [],
      "name": "getCurrentStage",
      "outputs": [
        {
          "name": "",
          "type": "uint256"
        }
      ],
      "payable": false,
      "stateMutability": "view",
      "type": "function"
    },
    {
      "constant": false,
      "inputs": [],
      "name": "commit",
      "outputs": [],
      "payable": true,
      "stateMutability": "payable",
      "type": "function"
    },
    {
      "constant": false,
      "inputs": [
        {
          "name": "_address",
          "type": "address"
        }
      ],
      "name": "whitelist",
      "outputs": [],
      "payable": false,
      "stateMutability": "nonpayable",
      "type": "function"
    },
    {
      "constant": false,
      "inputs": [
        {
          "name": "_address",
          "type": "address[]"
        }
      ],
      "name": "whitelistMultiple",
      "outputs": [],
      "payable": false,
      "stateMutability": "nonpayable",
      "type": "function"
    },
    {
      "constant": true,
      "inputs": [
        {
          "name": "_address",
          "type": "address"
        }
      ],
      "name": "isWhitelisted",
      "outputs": [
        {
          "name": "",
          "type": "bool"
        }
      ],
      "payable": false,
      "stateMutability": "view",
      "type": "function"
    },
    {
      "constant": true,
      "inputs": [],
      "name": "refund",
      "outputs": [
        {
          "name": "",
          "type": "bool"
        }
      ],
      "payable": false,
      "stateMutability": "view",
      "type": "function"
    },
    {
      "constant": true,
      "inputs": [],
      "name": "getCurrentBlockNumber",
      "outputs": [
        {
          "name": "",
          "type": "uint256"
        }
      ],
      "payable": false,
      "stateMutability": "view",
      "type": "function"
    }
  ],
  "bytecode": "0x60806040526000600460146101000a81548160ff0219169083151502179055506000600460156101000a81548160ff0219169083151502179055506000600460166101000a81548160ff021916908315150217905550600060075534801561006657600080fd5b5033600460006101000a81548173ffffffffffffffffffffffffffffffffffffffff021916908373ffffffffffffffffffffffffffffffffffffffff160217905550610a73806100b76000396000f3fe6080604052600436106101095760003560e01c8063825847cf116100955780639b19251a116100645780639b19251a14610452578063b5491ba6146104a3578063c00eebdf14610568578063eedbe31d14610593578063efdee94f146105be57610109565b8063825847cf14610309578063838e6e661461038157806392fb90f1146103ac57806395a4a6781461042757610109565b80633af32abf116100dc5780633af32abf146101c35780633c7a3aff1461022c578063590e1ae314610236578063690d41a5146102655780636fd902e1146102de57610109565b8063054f7d9c1461010b578063096338781461013a578063158ef93e146101655780631f2698ab14610194575b005b34801561011757600080fd5b50610120610615565b604051808215151515815260200191505060405180910390f35b34801561014657600080fd5b5061014f610628565b6040518082815260200191505060405180910390f35b34801561017157600080fd5b5061017a61062e565b604051808215151515815260200191505060405180910390f35b3480156101a057600080fd5b506101a9610641565b604051808215151515815260200191505060405180910390f35b3480156101cf57600080fd5b50610212600480360360208110156101e657600080fd5b81019080803573ffffffffffffffffffffffffffffffffffffffff169060200190929190505050610654565b604051808215151515815260200191505060405180910390f35b6102346106c5565b005b34801561024257600080fd5b5061024b6106c7565b604051808215151515815260200191505060405180910390f35b34801561027157600080fd5b506102dc600480360360a081101561028857600080fd5b81019080803573ffffffffffffffffffffffffffffffffffffffff169060200190929190803590602001909291908035906020019092919080359060200190929190803590602001909291905050506106cc565b005b3480156102ea57600080fd5b506102f3610839565b6040518082815260200191505060405180910390f35b34801561031557600080fd5b506103586004803603602081101561032c57600080fd5b81019080803573ffffffffffffffffffffffffffffffffffffffff169060200190929190505050610841565b60405180831515151581526020018261ffff1661ffff1681526020019250505060405180910390f35b34801561038d57600080fd5b50610396610880565b6040518082815260200191505060405180910390f35b3480156103b857600080fd5b506103e5600480360360208110156103cf57600080fd5b8101908080359060200190929190505050610886565b604051808273ffffffffffffffffffffffffffffffffffffffff1673ffffffffffffffffffffffffffffffffffffffff16815260200191505060405180910390f35b34801561043357600080fd5b5061043c6108b9565b6040518082815260200191505060405180910390f35b34801561045e57600080fd5b506104a16004803603602081101561047557600080fd5b81019080803573ffffffffffffffffffffffffffffffffffffffff1690602001909291905050506108bf565b005b3480156104af57600080fd5b50610566600480360360208110156104c657600080fd5b81019080803590602001906401000000008111156104e357600080fd5b8201836020820111156104f557600080fd5b8035906020019184602083028401116401000000008311171561051757600080fd5b919080806020026020016040519081016040528093929190818152602001838360200280828437600081840152601f19601f820116905080830192505050505050509192919290505050610935565b005b34801561057457600080fd5b5061057d6109e3565b6040518082815260200191505060405180910390f35b34801561059f57600080fd5b506105a86109e9565b6040518082815260200191505060405180910390f35b3480156105ca57600080fd5b506105d36109f6565b604051808273ffffffffffffffffffffffffffffffffffffffff1673ffffffffffffffffffffffffffffffffffffffff16815260200191505060405180910390f35b600460169054906101000a900460ff1681565b60035481565b600460149054906101000a900460ff1681565b600460159054906101000a900460ff1681565b600060011515600560008473ffffffffffffffffffffffffffffffffffffffff1673ffffffffffffffffffffffffffffffffffffffff16815260200190815260200160002060000160009054906101000a900460ff16151514156106bb57600190506106c0565b600090505b919050565b565b600090565b600460009054906101000a900473ffffffffffffffffffffffffffffffffffffffff1673ffffffffffffffffffffffffffffffffffffffff163373ffffffffffffffffffffffffffffffffffffffff1614610772576040517f08c379a0000000000000000000000000000000000000000000000000000000008152600401808060200182810382526022815260200180610a1d6022913960400191505060405180910390fd5b60001515600460149054906101000a900460ff161515146107fb576040517f08c379a00000000000000000000000000000000000000000000000000000000081526004018080602001828103825260208152602001807f436f6e7472616374206d757374206e6f7420626520696e697469616c697a656481525060200191505060405180910390fd5b836000819055508260018190555081600281905550806003819055506001600460146101000a81548160ff0219169083151502179055505050505050565b600043905090565b60056020528060005260406000206000915090508060000160009054906101000a900460ff16908060000160019054906101000a900461ffff16905082565b60025481565b60066020528060005260406000206000915054906101000a900473ffffffffffffffffffffffffffffffffffffffff1681565b60015481565b6000600560008373ffffffffffffffffffffffffffffffffffffffff1673ffffffffffffffffffffffffffffffffffffffff168152602001908152602001600020905060018160000160006101000a81548160ff0219169083151502179055506007600081548092919060010191905055505050565b60008090505b81518161ffff1610156109df57600060056000848461ffff168151811061095e57fe5b602002602001015173ffffffffffffffffffffffffffffffffffffffff1673ffffffffffffffffffffffffffffffffffffffff168152602001908152602001600020905060018160000160006101000a81548160ff02191690831515021790555060076000815480929190600101919050555050808060010191505061093b565b5050565b60005481565b6000804290508091505090565b600460009054906101000a900473ffffffffffffffffffffffffffffffffffffffff168156fe4f6e6c79206465706c6f7965722063616e2063616c6c2074686973206d6574686f64a265627a7a72305820d1c66f0da3200462ae650647926f428ae44a021a8cc726a1564c4b68b0e0eaaa64736f6c634300050a0032",
  "source": "/*\n * source       https://github.com/mickys/ricopoc/\n * @name        RICO\n * @package     ricopoc\n * @author      Micky Socaci <micky@nowlive.ro>\n * @license     MIT\n*/\n\npragma solidity ^0.5.0;\n\ncontract ReversableICO {\n\n    /*\n    *   Contract Settings\n    */\n    uint256 public StartBlock;\n    uint256 public EndBlock;\n    uint256 public SaleStageBlockCount;\n    uint256 public RicoStageBlockCount;\n\n\n\n    /*\n    *   Addresses\n    */\n    address public deployerAddress;\n\n    /*\n    *   Internals\n    */\n    bool public initialized = false;\n    bool public started = false;\n    bool public frozen = false;\n\n    enum Stages {\n        DEPLOYED,\n        INITIALIZED,\n        SALE,\n        RICO,\n        ENDED,\n        FROZEN\n    }\n\n    constructor() public {\n        deployerAddress = msg.sender;\n    }\n\n    // fallback function\n    function () external payable {\n\n    }\n\n    function addSettings(\n        address _TokenController,\n        uint256 _StartBlock,\n        uint256 _EndBlock,\n        uint256 _SaleStageBlockCount,\n        uint256 _RicoStageBlockCount\n    )\n        public\n        onlyDeployer\n        requireNotInitialized\n    {\n        StartBlock = _StartBlock;\n        EndBlock = _EndBlock;\n        SaleStageBlockCount = _SaleStageBlockCount;\n        RicoStageBlockCount = _RicoStageBlockCount;\n        initialized = true;\n    }\n\n    function getCurrentStage() public view returns ( uint256 ) {\n        // Stages\n        uint256 test = block.timestamp;\n\n        return test;\n    }\n\n\n    /*\n    *   Participants\n    */\n    struct Contribution {\n        uint256 value;\n        uint256 block;\n    }\n\n    struct Participant {\n        bool   whitelisted;\n        uint16  contributionsCount;\n        mapping ( uint16 => Contribution ) contributions;\n    }\n\n    mapping ( address => Participant ) public ParticipantsByAddress;\n    mapping ( uint256 => address ) public ParticipantsById;\n    uint256 ParticipantCount = 0;\n\n    /*\n    *   Investor commits funds\n    */\n    function commit()\n        public\n        payable\n        // requireAcceptContributions\n        // requireNotEnded\n        // requireNotFrozen\n    {\n        /*\n        // require(isStarted() && notFrozen(), \"\");\n        require(isWhitelisted(msg.sender), \"Address is not whitelisted to participate\");\n        require(msg.value > 0, \"Value must be higher than zero\");\n\n        // contribute first, then get whitelisted.\n\n        ParticipantType storage newRecord = ParticipantsByAddress[_address];\n        newRecord.whitelisted = true;\n        ParticipantCount++;\n\n        based on amount of blocks that passed, take the cut for the project\n        */\n    }\n\n\n\n    /*\n    *   Whitelisting\n    */\n    address whitelistControllerAddress;\n\n    function whitelist(address _address) public {\n        Participant storage newRecord = ParticipantsByAddress[_address];\n        newRecord.whitelisted = true;\n        ParticipantCount++;\n    }\n\n    function whitelistMultiple(address[] memory _address) public {\n        for( uint16 i = 0; i < _address.length; i++ ) {\n            Participant storage newRecord = ParticipantsByAddress[_address[i]];\n            newRecord.whitelisted = true;\n            ParticipantCount++;\n        }\n    }\n\n    function isWhitelisted(address _address) public view returns ( bool ) {\n        if(ParticipantsByAddress[_address].whitelisted == true) {\n            return true;\n        }\n        return false;\n    }\n\n\n    /*\n    * Refund ( ERC777TokensRecipient method )\n    */\n    function refund() public view returns (bool) {\n        // 1. make sure we're receiving the correct tokens, else revert\n        // 2. get current balance, and\n    }\n\n    /*\n    *   Utils\n    */\n    // required so we can override when running tests\n    function getCurrentBlockNumber() public view returns (uint256) {\n        return block.number;\n    }\n\n    /*\n    *   Modifiers\n    */\n\n    modifier onlyDeployer() {\n        require(msg.sender == deployerAddress, \"Only deployer can call this method\");\n        _;\n    }\n\n    modifier requireNotInitialized() {\n        require(initialized == false, \"Contract must not be initialized\");\n        _;\n    }\n\n    modifier requireInitialized() {\n        require(initialized == true, \"Contract must be initialized\");\n        _;\n    }\n\n    modifier requireNotFrozen() {\n        require(frozen == false, \"Contract must not be frozen\");\n        _;\n    }\n\n    modifier requireFrozen() {\n        require(frozen == true, \"Contract must not frozen\");\n        _;\n    }\n\n}",
  "sourcePath": "/Volumes/Dev/RICO/poc/contracts/ReversableICO.sol",
  "compiler": {
    "name": "solc",
    "version": "0.5.10+commit.5a6ea5b1.Darwin.appleclang"
  },
  "schemaVersion": "3.0.11",
  "updatedAt": "2019-07-29T06:50:47.454Z",
  "devdoc": {
    "methods": {}
  },
  "userdoc": {
    "methods": {}
  }
}